:0400000080313D28E6
:100008007E14803120007F08F3008B1D0C280D28FA
:1000180015280B1C102811281528823159228031E7
:1000280038280B1E1828192821288B1C1C281D2845
:1000380021288231A122803138280B1F2428252825
:1000480038282100111C29282A2838282000111CAA
:100058002E282F2838288131D72180313828382870
:10006800382838283828382873082000FF007E10E0
:10007800090080313F28F801F9012000AF01B001E3
:100088007E102000803148288131A72180318231BB
:10009800AE2280310030F400F5008131EE2180314C
:1000A8008B170B172230F4000230F50082319B22A7
:1000B8008031C730F4000030F50082318F22803162
:1000C800AA30F4000230F500823189228031220002
:1000D8000C11003081316B21803103302000A800E1
:1000E8000830A7007730890B7728A70B7728A80B4B
:1000F800772822000D128C14812820000D1D8528D8
:10010800862893288231AE2280310030F400F50031
:100118008131EE2180318231B12280319328200053
:100128003003031D98289928A7282F08031D9D2808
:100138009E28A7288031FD20803120003008A700A4
:100148002708AF00A7283008031DAB28AC28812852
:100158002F03031DB028B128812881312321803144
:1001680020003008A7002708AF008231AE22803176
:100178000030F400F5008131EE218031812881289A
:10018800812880313D280A308231402280318231F5
:10019800BA228031D028D028823173228031003AA7
:1001A8000319D728D828D028D9288231822280312B
:1001B8007108F9007008F8000230790299300319C3
:1001C8007802031CE828E928FB280130F2007208AD
:1001D8002000B0008231B42280310030F000F100FC
:1001E8008231002280318231B7228031FB280B1006
:1001F800080022000D162000A60164302602031C08
:1002080006290729092922292229260881316B2153
:10021800803168302000A500E430890B1129A50B36
:100228001129000001302000A5002508A607643028
:100238002602031C202921290929222908006430C3
:100248002000A5002508A6002608031D2C292D2915
:100258002F2944294429260881316B2181316830AE
:100268002000A500E430890B3729A50B37290000A9
:1002780001302000A6022608031D432944292F29FE
:1002880022000D120800043022008C008D018E011E
:1002980021008C0107308D008E0123008E01023071
:1002A8008D008C01240090018D01210095170130EB
:1002B80022009D002700161115111415BE30F400F8
:1002C8000230F50082318F2281318B150800200021
:1002D800A40065302402031C72297329772964302D
:1002E800A2002208A4000310A40C2408A200A30161
:1002F800A209A309A20A0319A30A2208F43EF400DA
:100308000130233DF50081318B21813108007508CA
:100318002000A1007408A000A136A00CA136A00CF2
:10032800200825009800740803392000A000043034
:10033800A035890B9C2925001A08CF3920002004F4
:1003480025009A00080081314721813182319522A8
:1003580081318231A622813182317B228131823101
:100368006B2281318231632281318131C021813117
:1003780082314D22813108002000990197013130E6
:1003880096001708F7001608F6001110210011143E
:10039800BD30F4000230F500823189228131F1301C
:1003A800200098000800200011107708F100760856
:1003B800F000823100228131200029082A04031923
:1003C800E629E729ED292A088A0029080A00813147
:1003D800ED2908002000181DF229F329FA29181020
:1003E80075089700740896001814FF297508970077
:1003F80074089600FF2908002000181D042A052A01
:100408000C2A181071089700700896001814112A01
:100418007108970070089600112A080020002D081E
:100428002E040319182A192A1F2A2E088A002D08B3
:100438000A0082311F2A2700161108008B1D252A61
:10044800262A2D2A8B1122008C102000B0011110B1
:10045800302A8B1522008C148B10080020002B08E2
:100468002C040319382A392A3F2A2C088A002B0819
:100478000A0082313F2A0800F1007108F000F00DEF
:10048800F00D21001D087006833970069D001D14AB
:1004980008008B1021001517BF30F4000230F5005A
:1004A80082319B2282310B1608002700161D5D2A17
:1004B8005E2A622A823112228231622A0800EF30D3
:1004C80020009B009A01911004309C000800013024
:1004D80021009D00F0309E009B019C010800031044
:1004E80021009D1C03140030093D7A2A08003C3085
:1004F80025009A009F3098009901080021001C08E7
:10050800F1001B08F000882A080075082000AA00DE
:100518007408A900080075082000AE007408AD0032
:10052800080078302100990022009601080075081B
:100538002000AC007408AB0008008B108231322216
:100548008231080016302100970008002000B00111
:1005580011100800200018100800200018140800C6
:1005680020001810080020001814080021009D140D
:0805780008000800080008005B
:020000040001F9
:04000E00E4FFFFFF0D
:00000001FF
