:020000040000FA
:040000008031132810
:100008007E1480310B1E09280A2811288B1C0D2804
:100018000E28112880318C2080317E100900803113
:1000280015287E10200080314A288B1303102200E7
:100038008C1C031403182128242822008C14262839
:1000480022008C100630F1001330F000AE30890B1E
:100058002B28F00B2B28F10B2B288B108B17080063
:10006800043022008C008D018E0121008C010730A4
:100078008D008E0123008E018D018C0124009001DA
:100088008D012100951722009D01080080315C2018
:1000980080318B170B171930F2000030F3008031D4
:1000A8008720803122000C11000058288031132845
:1000B800803134208031803181208031803191201D
:1000C800803180316920803108008B10210015179C
:1000D8009530F2000030F3008031872080310B1614
:1000E80008007408750403197A287B288028750885
:1000F8008A0074080A0080310800783021009900CD
:100108002200960108007308F5007208F400080040
:100118008B1080317520803108001630210097003F
:0401280008000800C3
:020000040001F9
:04000E00E4FFFFFF0D
:00000001FF
