:020000040000FA
:040000008031132810
:100008007E1480310B1E09280A2811288B1C0D2804
:100018000E28112881314A2180317E100900803153
:1000280015282000A501A6017E10200080311C287B
:100038008131052180318B170B17BD30F20000305C
:10004800F30081314521803122000C1100308031CC
:100058006420803103302000A4000830A3007730EA
:10006800890B3428A30B3428A40B342822000D1242
:1000780020002603031D412842284F282508031D78
:10008800462847284F2880318320803120002608C1
:10009800A3002308A5002608031D532854283C283C
:1000A8002503031D582859283C288031A020803179
:1000B80020002608A3002308A5003C288031132827
:1000C8002000A00065302002031C6B286C287028D3
:1000D8006430F6007608A0000310A00C2008F60093
:1000E800F701F430F8000130F90076087802F200E0
:1000F8007708793BF3008031D7208031080022004F
:100108000D162000A2012208803164208031683059
:100118002000A100E430890B8F28A10B8F28000054
:1001280001302000A1002108A20764302202031C2C
:100138009E289F288728080064302000A1002108F5
:10014800A200220880316420803168302000A1009C
:10015800E430890BAD28A10BAD2800000130200048
:10016800A2022208031DB928BA28A52822000D12C8
:1001780008008B13200026080319C328C52801305E
:10018800C6280030F0007008A6000630F1001330D1
:10019800F000AE30890BCE28F00BCE28F10BCE281C
:1001A8008B108B1708007308F5007208F400F536F9
:1001B800F40CF536F40C740825009800720803391D
:1001C800F4000430F435890BE6281A08CF39740492
:1001D8009A000800043022008C008D018E01210055
:1001E8008C0107308D008E0123008E018D018C015A
:1001F800240090018D0121009517013022009D00F7
:1002080008008031EE20813181313F2181318131F7
:100218004F21813181313821813181313021813142
:1002280081311821813108008B10210015175330B6
:10023800F2000130F3008131452181310B160800AD
:100248007A087B04031929292A292F297B088A007F
:100258007A080A0081310800EF3020009B009A01DB
:10026800911004309C0008003C3025009A009F3013
:100278009800990108007830210099002200960121
:1002880008007308FB007208FA0008008B1081311F
:100298002421813108001630210097000800080049
:020000040001F9
:04000E00E4FFFFFF0D
:00000001FF
