:0400000080313D28E6
:100008007E14803120007F08F4008B1D0C280D28F9
:1000180015280B1C10281128152882311D22803123
:1000280038280B1E1828192821288B1C1C281D2845
:10003800212882314E22803138280B1F2428252878
:1000480038282100111C29282A2838282000111CAA
:100058002E282F2838288131A221803138283828A5
:10006800382838283828382874082000FF007E10DF
:10007800090080313F282000AF01B0017E10200028
:10008800803146288131B921803182315B2280312B
:1000980000302000A000A1008131CF2180318B17D2
:1000A8000B1750302000A0000130A10082313C2203
:1000B800803157302000A0000230A1008231362262
:1000C800803122000C110030813130218031033021
:1000D8002000AA000830A9007730890B7128A90BE5
:1000E8007128AA0B712822000D127A2820000D1DF4
:1000F8007E287F288D2882315B22803100302000C5
:10010800A000A1008131CF21803182315E2280316F
:100118008D2820003003031D92289328A1282F083A
:10012800031D97289828A1288031C22080312000FB
:100138003008A9002908AF00A1283008031DA52808
:10014800A6287A282F03031DAA28AB287A288031ED
:10015800E820803120003008A9002908AF0082314A
:100168005B22803100302000A000A1008131CF2126
:1001780080317A287A287A2880313D2822000D1685
:100188002000A80164302802031CCB28CC28CE28E4
:10019800E728E7282808813130218031683020009D
:1001A800A700E430890BD628A70BD6280000013019
:1001B8002000A7002708A80764302802031CE528A8
:1001C800E628CE28E728080064302000A700270882
:1001D800A8002808031DF128F228F428092909296C
:1001E800280881313021803168302000A700E430B0
:1001F800890BFC28A70BFC28000001302000A8026E
:100208002808031D08290929F42822000D120800CE
:10021800043022008C008D018E0121008C010730F2
:100228008D008E0123008E018D018C012400900128
:100238008D0121009517013022009D00270016111D
:100248001511141568302000A0000230A100823179
:100258003C2281318B1508002000A600653026025B
:10026800031C372938293C296430A4002408A60037
:100278000310A60C2608A400A501A409A509A40A30
:100288000319A50A2408F43EA0000130253DA10069
:1002980081316E21813108000630F3001330F200FD
:1002A800AE30890B5529F20B5529F30B552901302E
:1002B800F20072082000B0008231612281310030E2
:1002C800F000F1008131E1218131823164228131F4
:1002D8000B10080020002108A3002008A200A33664
:1002E800A20CA336A20C22082500980020002008A2
:1002F8000339A2000430A235890B7F2925001A088A
:10030800CF392000220425009A0008002000990116
:100318009701313096001708F6001608F5001110FD
:100328002100111467302000A0000230A1008231A2
:1003380036228131F1302000980008002000111089
:100348007608F1007508F0008131E1218131200043
:100358002B082C040319B129B229B8292C088A00C2
:100368002B080A008131B829080081310C2181311C
:1003780082314222813182315322813182312F22CE
:10038800813182312722813181318A218131823143
:100398001022813108002000181DD329D429DB2917
:1003A800181021089700200896001814E029210841
:1003B800970020089600E02908002000181DE5296C
:1003C800E629ED291810710897007008960018148E
:1003D800F2297108970070089600F229080077083A
:1003E80078040319F829F929FF2978088A00770879
:1003F8000A008131FF2927001611080020002D0866
:100408002E040319082A092A0F2A2E088A002D0803
:100418000A0082310F2A08008B1021001517693055
:100428002000A0000230A1008231482282310B1640
:1004380008002700161D212A222A262A8131F321A5
:100448008231262A0800EF3020009B009A01911083
:1004580004309C0008003C3025009A009F3098002A
:100468009901080020002108AC002008AB00080012
:1004780020002108F8002008F70008007830210043
:10048800990022009601080020002108AE002008EB
:10049800AD0008008B10823102228231080016302C
:1004A8002100970008002000B0011110080020006A
:1004B8001810080020001814080020001810080060
:0C04C800200018140800080008000800BC
:020000040001F9
:04000E00E4FFFFFF0D
:00000001FF
